{
  "_format": "hh-sol-artifact-1",
  "contractName": "EquipmentPassport",
  "sourceName": "contracts/EquipmentPassport.sol",
  "abi": [
    {
      "inputs": [],
      "stateMutability": "nonpayable",
      "type": "constructor"
    },
    {
      "inputs": [],
      "name": "AccessControlBadConfirmation",
      "type": "error"
    },
    {
      "inputs": [
        {
          "internalType": "address",
          "name": "account",
          "type": "address"
        },
        {
          "internalType": "bytes32",
          "name": "neededRole",
          "type": "bytes32"
        }
      ],
      "name": "AccessControlUnauthorizedAccount",
      "type": "error"
    },
    {
      "anonymous": false,
      "inputs": [
        {
          "indexed": false,
          "internalType": "uint256",
          "name": "equipmentId",
          "type": "uint256"
        },
        {
          "indexed": false,
          "internalType": "string",
          "name": "ipfsHash",
          "type": "string"
        }
      ],
      "name": "DocumentAdded",
      "type": "event"
    },
    {
      "anonymous": false,
      "inputs": [
        {
          "indexed": false,
          "internalType": "uint256",
          "name": "id",
          "type": "uint256"
        },
        {
          "indexed": false,
          "internalType": "string",
          "name": "name",
          "type": "string"
        },
        {
          "indexed": false,
          "internalType": "string",
          "name": "owner",
          "type": "string"
        }
      ],
      "name": "EquipmentRegistered",
      "type": "event"
    },
    {
      "anonymous": false,
      "inputs": [
        {
          "indexed": false,
          "internalType": "uint256",
          "name": "equipmentId",
          "type": "uint256"
        },
        {
          "indexed": false,
          "internalType": "string",
          "name": "description",
          "type": "string"
        },
        {
          "indexed": false,
          "internalType": "address",
          "name": "technician",
          "type": "address"
        }
      ],
      "name": "MaintenanceAdded",
      "type": "event"
    },
    {
      "anonymous": false,
      "inputs": [
        {
          "indexed": false,
          "internalType": "uint256",
          "name": "id",
          "type": "uint256"
        },
        {
          "indexed": false,
          "internalType": "string",
          "name": "newOwner",
          "type": "string"
        }
      ],
      "name": "OwnerUpdated",
      "type": "event"
    },
    {
      "anonymous": false,
      "inputs": [
        {
          "indexed": true,
          "internalType": "bytes32",
          "name": "role",
          "type": "bytes32"
        },
        {
          "indexed": true,
          "internalType": "bytes32",
          "name": "previousAdminRole",
          "type": "bytes32"
        },
        {
          "indexed": true,
          "internalType": "bytes32",
          "name": "newAdminRole",
          "type": "bytes32"
        }
      ],
      "name": "RoleAdminChanged",
      "type": "event"
    },
    {
      "anonymous": false,
      "inputs": [
        {
          "indexed": true,
          "internalType": "bytes32",
          "name": "role",
          "type": "bytes32"
        },
        {
          "indexed": true,
          "internalType": "address",
          "name": "account",
          "type": "address"
        },
        {
          "indexed": true,
          "internalType": "address",
          "name": "sender",
          "type": "address"
        }
      ],
      "name": "RoleGranted",
      "type": "event"
    },
    {
      "anonymous": false,
      "inputs": [
        {
          "indexed": true,
          "internalType": "bytes32",
          "name": "role",
          "type": "bytes32"
        },
        {
          "indexed": true,
          "internalType": "address",
          "name": "account",
          "type": "address"
        },
        {
          "indexed": true,
          "internalType": "address",
          "name": "sender",
          "type": "address"
        }
      ],
      "name": "RoleRevoked",
      "type": "event"
    },
    {
      "inputs": [],
      "name": "AUDITOR_ROLE",
      "outputs": [
        {
          "internalType": "bytes32",
          "name": "",
          "type": "bytes32"
        }
      ],
      "stateMutability": "view",
      "type": "function"
    },
    {
      "inputs": [],
      "name": "DEFAULT_ADMIN_ROLE",
      "outputs": [
        {
          "internalType": "bytes32",
          "name": "",
          "type": "bytes32"
        }
      ],
      "stateMutability": "view",
      "type": "function"
    },
    {
      "inputs": [],
      "name": "TECHNICIAN_ROLE",
      "outputs": [
        {
          "internalType": "bytes32",
          "name": "",
          "type": "bytes32"
        }
      ],
      "stateMutability": "view",
      "type": "function"
    },
    {
      "inputs": [
        {
          "internalType": "address",
          "name": "_auditor",
          "type": "address"
        }
      ],
      "name": "addAuditor",
      "outputs": [],
      "stateMutability": "nonpayable",
      "type": "function"
    },
    {
      "inputs": [
        {
          "internalType": "uint256",
          "name": "_equipmentId",
          "type": "uint256"
        },
        {
          "internalType": "string",
          "name": "_ipfsHash",
          "type": "string"
        }
      ],
      "name": "addDocument",
      "outputs": [],
      "stateMutability": "nonpayable",
      "type": "function"
    },
    {
      "inputs": [
        {
          "internalType": "uint256",
          "name": "_equipmentId",
          "type": "uint256"
        },
        {
          "internalType": "string",
          "name": "_description",
          "type": "string"
        }
      ],
      "name": "addMaintenance",
      "outputs": [],
      "stateMutability": "nonpayable",
      "type": "function"
    },
    {
      "inputs": [
        {
          "internalType": "address",
          "name": "_tech",
          "type": "address"
        }
      ],
      "name": "addTechnician",
      "outputs": [],
      "stateMutability": "nonpayable",
      "type": "function"
    },
    {
      "inputs": [],
      "name": "equipmentCount",
      "outputs": [
        {
          "internalType": "uint256",
          "name": "",
          "type": "uint256"
        }
      ],
      "stateMutability": "view",
      "type": "function"
    },
    {
      "inputs": [
        {
          "internalType": "uint256",
          "name": "",
          "type": "uint256"
        },
        {
          "internalType": "uint256",
          "name": "",
          "type": "uint256"
        }
      ],
      "name": "equipmentDocuments",
      "outputs": [
        {
          "internalType": "uint256",
          "name": "equipmentId",
          "type": "uint256"
        },
        {
          "internalType": "string",
          "name": "ipfsHash",
          "type": "string"
        },
        {
          "internalType": "uint256",
          "name": "timestamp",
          "type": "uint256"
        }
      ],
      "stateMutability": "view",
      "type": "function"
    },
    {
      "inputs": [
        {
          "internalType": "uint256",
          "name": "",
          "type": "uint256"
        }
      ],
      "name": "equipments",
      "outputs": [
        {
          "internalType": "uint256",
          "name": "id",
          "type": "uint256"
        },
        {
          "internalType": "string",
          "name": "name",
          "type": "string"
        },
        {
          "internalType": "string",
          "name": "owner",
          "type": "string"
        },
        {
          "internalType": "uint256",
          "name": "createdAt",
          "type": "uint256"
        }
      ],
      "stateMutability": "view",
      "type": "function"
    },
    {
      "inputs": [
        {
          "internalType": "uint256",
          "name": "_equipmentId",
          "type": "uint256"
        },
        {
          "internalType": "uint256",
          "name": "_index",
          "type": "uint256"
        }
      ],
      "name": "getDocument",
      "outputs": [
        {
          "components": [
            {
              "internalType": "uint256",
              "name": "equipmentId",
              "type": "uint256"
            },
            {
              "internalType": "string",
              "name": "ipfsHash",
              "type": "string"
            },
            {
              "internalType": "uint256",
              "name": "timestamp",
              "type": "uint256"
            }
          ],
          "internalType": "struct EquipmentPassport.Document",
          "name": "",
          "type": "tuple"
        }
      ],
      "stateMutability": "view",
      "type": "function"
    },
    {
      "inputs": [
        {
          "internalType": "uint256",
          "name": "_equipmentId",
          "type": "uint256"
        }
      ],
      "name": "getDocumentCount",
      "outputs": [
        {
          "internalType": "uint256",
          "name": "",
          "type": "uint256"
        }
      ],
      "stateMutability": "view",
      "type": "function"
    },
    {
      "inputs": [
        {
          "internalType": "uint256",
          "name": "_id",
          "type": "uint256"
        }
      ],
      "name": "getEquipment",
      "outputs": [
        {
          "components": [
            {
              "internalType": "uint256",
              "name": "id",
              "type": "uint256"
            },
            {
              "internalType": "string",
              "name": "name",
              "type": "string"
            },
            {
              "internalType": "string",
              "name": "owner",
              "type": "string"
            },
            {
              "internalType": "uint256",
              "name": "createdAt",
              "type": "uint256"
            }
          ],
          "internalType": "struct EquipmentPassport.Equipment",
          "name": "",
          "type": "tuple"
        }
      ],
      "stateMutability": "view",
      "type": "function"
    },
    {
      "inputs": [],
      "name": "getEquipmentCount",
      "outputs": [
        {
          "internalType": "uint256",
          "name": "",
          "type": "uint256"
        }
      ],
      "stateMutability": "view",
      "type": "function"
    },
    {
      "inputs": [
        {
          "internalType": "uint256",
          "name": "_equipmentId",
          "type": "uint256"
        },
        {
          "internalType": "uint256",
          "name": "_index",
          "type": "uint256"
        }
      ],
      "name": "getMaintenance",
      "outputs": [
        {
          "components": [
            {
              "internalType": "uint256",
              "name": "equipmentId",
              "type": "uint256"
            },
            {
              "internalType": "string",
              "name": "description",
              "type": "string"
            },
            {
              "internalType": "uint256",
              "name": "timestamp",
              "type": "uint256"
            },
            {
              "internalType": "address",
              "name": "technician",
              "type": "address"
            }
          ],
          "internalType": "struct EquipmentPassport.Maintenance",
          "name": "",
          "type": "tuple"
        }
      ],
      "stateMutability": "view",
      "type": "function"
    },
    {
      "inputs": [
        {
          "internalType": "uint256",
          "name": "_equipmentId",
          "type": "uint256"
        }
      ],
      "name": "getMaintenanceCount",
      "outputs": [
        {
          "internalType": "uint256",
          "name": "",
          "type": "uint256"
        }
      ],
      "stateMutability": "view",
      "type": "function"
    },
    {
      "inputs": [
        {
          "internalType": "bytes32",
          "name": "role",
          "type": "bytes32"
        }
      ],
      "name": "getRoleAdmin",
      "outputs": [
        {
          "internalType": "bytes32",
          "name": "",
          "type": "bytes32"
        }
      ],
      "stateMutability": "view",
      "type": "function"
    },
    {
      "inputs": [
        {
          "internalType": "bytes32",
          "name": "role",
          "type": "bytes32"
        },
        {
          "internalType": "address",
          "name": "account",
          "type": "address"
        }
      ],
      "name": "grantRole",
      "outputs": [],
      "stateMutability": "nonpayable",
      "type": "function"
    },
    {
      "inputs": [
        {
          "internalType": "bytes32",
          "name": "role",
          "type": "bytes32"
        },
        {
          "internalType": "address",
          "name": "account",
          "type": "address"
        }
      ],
      "name": "hasRole",
      "outputs": [
        {
          "internalType": "bool",
          "name": "",
          "type": "bool"
        }
      ],
      "stateMutability": "view",
      "type": "function"
    },
    {
      "inputs": [
        {
          "internalType": "address",
          "name": "_addr",
          "type": "address"
        }
      ],
      "name": "isAuditor",
      "outputs": [
        {
          "internalType": "bool",
          "name": "",
          "type": "bool"
        }
      ],
      "stateMutability": "view",
      "type": "function"
    },
    {
      "inputs": [
        {
          "internalType": "address",
          "name": "_addr",
          "type": "address"
        }
      ],
      "name": "isTechnician",
      "outputs": [
        {
          "internalType": "bool",
          "name": "",
          "type": "bool"
        }
      ],
      "stateMutability": "view",
      "type": "function"
    },
    {
      "inputs": [
        {
          "internalType": "uint256",
          "name": "",
          "type": "uint256"
        },
        {
          "internalType": "uint256",
          "name": "",
          "type": "uint256"
        }
      ],
      "name": "maintenanceHistory",
      "outputs": [
        {
          "internalType": "uint256",
          "name": "equipmentId",
          "type": "uint256"
        },
        {
          "internalType": "string",
          "name": "description",
          "type": "string"
        },
        {
          "internalType": "uint256",
          "name": "timestamp",
          "type": "uint256"
        },
        {
          "internalType": "address",
          "name": "technician",
          "type": "address"
        }
      ],
      "stateMutability": "view",
      "type": "function"
    },
    {
      "inputs": [
        {
          "internalType": "string",
          "name": "_name",
          "type": "string"
        },
        {
          "internalType": "string",
          "name": "_owner",
          "type": "string"
        }
      ],
      "name": "registerEquipment",
      "outputs": [],
      "stateMutability": "nonpayable",
      "type": "function"
    },
    {
      "inputs": [
        {
          "internalType": "bytes32",
          "name": "role",
          "type": "bytes32"
        },
        {
          "internalType": "address",
          "name": "callerConfirmation",
          "type": "address"
        }
      ],
      "name": "renounceRole",
      "outputs": [],
      "stateMutability": "nonpayable",
      "type": "function"
    },
    {
      "inputs": [
        {
          "internalType": "bytes32",
          "name": "role",
          "type": "bytes32"
        },
        {
          "internalType": "address",
          "name": "account",
          "type": "address"
        }
      ],
      "name": "revokeRole",
      "outputs": [],
      "stateMutability": "nonpayable",
      "type": "function"
    },
    {
      "inputs": [
        {
          "internalType": "bytes4",
          "name": "interfaceId",
          "type": "bytes4"
        }
      ],
      "name": "supportsInterface",
      "outputs": [
        {
          "internalType": "bool",
          "name": "",
          "type": "bool"
        }
      ],
      "stateMutability": "view",
      "type": "function"
    },
    {
      "inputs": [
        {
          "internalType": "uint256",
          "name": "_id",
          "type": "uint256"
        },
        {
          "internalType": "string",
          "name": "_newOwner",
          "type": "string"
        }
      ],
      "name": "updateOwner",
      "outputs": [],
      "stateMutability": "nonpayable",
      "type": "function"
    }
  ],
  "bytecode": "0x60806040523480156200001157600080fd5b50620000276000801b336200002e60201b60201c565b50620001a3565b60006200004283836200013160201b60201c565b6200012657600160008085815260200190815260200160002060000160008473ffffffffffffffffffffffffffffffffffffffff1673ffffffffffffffffffffffffffffffffffffffff16815260200190815260200160002060006101000a81548160ff021916908315150217905550620000c26200019b60201b60201c565b73ffffffffffffffffffffffffffffffffffffffff168273ffffffffffffffffffffffffffffffffffffffff16847f2f8788117e7eff1d82e926ec794901d17c78024a50270940304540a733656f0d60405160405180910390a4600190506200012b565b600090505b92915050565b600080600084815260200190815260200160002060000160008373ffffffffffffffffffffffffffffffffffffffff1673ffffffffffffffffffffffffffffffffffffffff16815260200190815260200160002060009054906101000a900460ff16905092915050565b600033905090565b612b7880620001b36000396000f3fe608060405234801561001057600080fd5b50600436106101a95760003560e01c806381dd2fa0116100f9578063c9e3bdc711610097578063e429cef111610071578063e429cef11461052f578063e5a54e8f1461054b578063fae7767514610567578063ff67dada1461059a576101a9565b8063c9e3bdc7146104b1578063d1b78668146104e3578063d547741f14610513576101a9565b80639d219562116100d35780639d21956214610400578063a217fddf14610430578063a6efd6201461044e578063bb5786ce14610481576101a9565b806381dd2fa0146103845780638bfb1d07146103b457806391d14854146103d0576101a9565b80632f2ff15d116101665780635f3a1c01116101405780635f3a1c01146103105780635f68a7ba1461032e5780636e1d616e1461034a57806381ce880f14610368576101a9565b80632f2ff15d146102a857806336568abe146102c457806349b90557146102e0576101a9565b806301ffc9a7146101ae5780630bd429f2146101de5780630f53ce01146101fa5780630f5b76fa1461022a578063248a9ca31461025a57806328512d2b1461028a575b600080fd5b6101c860048036038101906101c39190611bf6565b6105b8565b6040516101d59190611c3e565b60405180910390f35b6101f860048036038101906101f39190611cb7565b610632565b005b610214600480360381019061020f9190611d1a565b6106dc565b6040516102219190611e49565b60405180910390f35b610244600480360381019061023f9190611cb7565b610879565b6040516102519190611c3e565b60405180910390f35b610274600480360381019061026f9190611ea1565b6108ac565b6040516102819190611edd565b60405180910390f35b6102926108cb565b60405161029f9190611f07565b60405180910390f35b6102c260048036038101906102bd9190611f22565b6108d1565b005b6102de60048036038101906102d99190611f22565b6108f3565b005b6102fa60048036038101906102f59190611cb7565b61096e565b6040516103079190611c3e565b60405180910390f35b6103186109a1565b6040516103259190611edd565b60405180910390f35b61034860048036038101906103439190612097565b6109c5565b005b610352610abb565b60405161035f9190611edd565b60405180910390f35b610382600480360381019061037d91906120f3565b610adf565b005b61039e6004803603810190610399919061216b565b610c3b565b6040516103ab9190612202565b60405180910390f35b6103ce60048036038101906103c99190612097565b610df1565b005b6103ea60048036038101906103e59190611f22565b610f46565b6040516103f79190611c3e565b60405180910390f35b61041a6004803603810190610415919061216b565b610fb0565b6040516104279190611f07565b60405180910390f35b610438611020565b6040516104459190611edd565b60405180910390f35b6104686004803603810190610463919061216b565b611027565b604051610478949392919061226e565b60405180910390f35b61049b6004803603810190610496919061216b565b611167565b6040516104a89190611f07565b60405180910390f35b6104cb60048036038101906104c69190611d1a565b6111d7565b6040516104da939291906122c1565b60405180910390f35b6104fd60048036038101906104f89190611d1a565b6112a6565b60405161050a9190612371565b60405180910390f35b61052d60048036038101906105289190611f22565b611499565b005b61054960048036038101906105449190611cb7565b6114bb565b005b61056560048036038101906105609190612097565b611565565b005b610581600480360381019061057c9190611d1a565b61174a565b60405161059194939291906123a2565b60405180910390f35b6105a261183f565b6040516105af9190611f07565b60405180910390f35b60007f7965db0b000000000000000000000000000000000000000000000000000000007bffffffffffffffffffffffffffffffffffffffffffffffffffffffff1916827bffffffffffffffffffffffffffffffffffffffffffffffffffffffff1916148061062b575061062a82611849565b5b9050919050565b6000801b61063f816118b3565b600073ffffffffffffffffffffffffffffffffffffffff168273ffffffffffffffffffffffffffffffffffffffff16036106ae576040517f08c379a00000000000000000000000000000000000000000000000000000000081526004016106a59061243a565b60405180910390fd5b6106d87fb6e8315043e45efab752c05610f0db52295c7af588d53653ef66f0cc109dd976836108d1565b5050565b6106e4611b03565b6000831180156106f657506001548311155b610735576040517f08c379a000000000000000000000000000000000000000000000000000000000815260040161072c906124a6565b60405180910390fd5b6004600084815260200190815260200160002080549050821061078d576040517f08c379a000000000000000000000000000000000000000000000000000000000815260040161078490612512565b60405180910390fd5b6004600084815260200190815260200160002082815481106107b2576107b1612532565b5b9060005260206000209060030201604051806060016040529081600082015481526020016001820180546107e590612590565b80601f016020809104026020016040519081016040528092919081815260200182805461081190612590565b801561085e5780601f106108335761010080835404028352916020019161085e565b820191906000526020600020905b81548152906001019060200180831161084157829003601f168201915b50505050508152602001600282015481525050905092915050565b60006108a57fb6e8315043e45efab752c05610f0db52295c7af588d53653ef66f0cc109dd97683610f46565b9050919050565b6000806000838152602001908152602001600020600101549050919050565b60015481565b6108da826108ac565b6108e3816118b3565b6108ed83836118c7565b50505050565b6108fb6119b8565b73ffffffffffffffffffffffffffffffffffffffff168173ffffffffffffffffffffffffffffffffffffffff161461095f576040517f6697b23200000000000000000000000000000000000000000000000000000000815260040160405180910390fd5b61096982826119c0565b505050565b600061099a7f59a1c48e5837ad7a7f3dcedcbe129bf3249ec4fbf651fd4f5e2600ead39fe2f583610f46565b9050919050565b7fb6e8315043e45efab752c05610f0db52295c7af588d53653ef66f0cc109dd97681565b6000821180156109d757506001548211155b610a16576040517f08c379a0000000000000000000000000000000000000000000000000000000008152600401610a0d906124a6565b60405180910390fd5b6000815111610a5a576040517f08c379a0000000000000000000000000000000000000000000000000000000008152600401610a519061260d565b60405180910390fd5b80600260008481526020019081526020016000206002019081610a7d91906127d9565b507f896f61f536053e59a6135c106a77ac04a15ae669511253c820f5eddd1fa3cb968282604051610aaf9291906128ab565b60405180910390a15050565b7f59a1c48e5837ad7a7f3dcedcbe129bf3249ec4fbf651fd4f5e2600ead39fe2f581565b6000825111610b23576040517f08c379a0000000000000000000000000000000000000000000000000000000008152600401610b1a90612927565b60405180910390fd5b6000815111610b67576040517f08c379a0000000000000000000000000000000000000000000000000000000008152600401610b5e9061260d565b60405180910390fd5b60016000815480929190610b7a90612976565b91905055506040518060800160405280600154815260200183815260200182815260200142815250600260006001548152602001908152602001600020600082015181600001556020820151816001019081610bd691906127d9565b506040820151816002019081610bec91906127d9565b50606082015181600301559050507f24b98fb56c6fdaabbe7a2abc0415a0dc2ab048f368bead397813e459a680f86b6001548383604051610c2f939291906129be565b60405180910390a15050565b610c43611b24565b600082118015610c5557506001548211155b610c94576040517f08c379a0000000000000000000000000000000000000000000000000000000008152600401610c8b906124a6565b60405180910390fd5b6002600083815260200190815260200160002060405180608001604052908160008201548152602001600182018054610ccc90612590565b80601f0160208091040260200160405190810160405280929190818152602001828054610cf890612590565b8015610d455780601f10610d1a57610100808354040283529160200191610d45565b820191906000526020600020905b815481529060010190602001808311610d2857829003601f168201915b50505050508152602001600282018054610d5e90612590565b80601f0160208091040260200160405190810160405280929190818152602001828054610d8a90612590565b8015610dd75780601f10610dac57610100808354040283529160200191610dd7565b820191906000526020600020905b815481529060010190602001808311610dba57829003601f168201915b505050505081526020016003820154815250509050919050565b600082118015610e0357506001548211155b610e42576040517f08c379a0000000000000000000000000000000000000000000000000000000008152600401610e39906124a6565b60405180910390fd5b6000815111610e86576040517f08c379a0000000000000000000000000000000000000000000000000000000008152600401610e7d90612a4f565b60405180910390fd5b600460008381526020019081526020016000206040518060600160405280848152602001838152602001428152509080600181540180825580915050600190039060005260206000209060030201600090919091909150600082015181600001556020820151816001019081610efc91906127d9565b506040820151816002015550507fa27affd73e620d6edea4d8c6cb3e758783e547c2332422a234998f2cdab6e6fd8282604051610f3a9291906128ab565b60405180910390a15050565b600080600084815260200190815260200160002060000160008373ffffffffffffffffffffffffffffffffffffffff1673ffffffffffffffffffffffffffffffffffffffff16815260200190815260200160002060009054906101000a900460ff16905092915050565b60008082118015610fc357506001548211155b611002576040517f08c379a0000000000000000000000000000000000000000000000000000000008152600401610ff9906124a6565b60405180910390fd5b60046000838152602001908152602001600020805490509050919050565b6000801b81565b600260205280600052604060002060009150905080600001549080600101805461105090612590565b80601f016020809104026020016040519081016040528092919081815260200182805461107c90612590565b80156110c95780601f1061109e576101008083540402835291602001916110c9565b820191906000526020600020905b8154815290600101906020018083116110ac57829003601f168201915b5050505050908060020180546110de90612590565b80601f016020809104026020016040519081016040528092919081815260200182805461110a90612590565b80156111575780601f1061112c57610100808354040283529160200191611157565b820191906000526020600020905b81548152906001019060200180831161113a57829003601f168201915b5050505050908060030154905084565b6000808211801561117a57506001548211155b6111b9576040517f08c379a00000000000000000000000000000000000000000000000000000000081526004016111b0906124a6565b60405180910390fd5b60036000838152602001908152602001600020805490509050919050565b600460205281600052604060002081815481106111f357600080fd5b90600052602060002090600302016000915091505080600001549080600101805461121d90612590565b80601f016020809104026020016040519081016040528092919081815260200182805461124990612590565b80156112965780601f1061126b57610100808354040283529160200191611296565b820191906000526020600020905b81548152906001019060200180831161127957829003601f168201915b5050505050908060020154905083565b6112ae611b4c565b6000831180156112c057506001548311155b6112ff576040517f08c379a00000000000000000000000000000000000000000000000000000000081526004016112f6906124a6565b60405180910390fd5b60036000848152602001908152602001600020805490508210611357576040517f08c379a000000000000000000000000000000000000000000000000000000000815260040161134e90612512565b60405180910390fd5b60036000848152602001908152602001600020828154811061137c5761137b612532565b5b9060005260206000209060040201604051806080016040529081600082015481526020016001820180546113af90612590565b80601f01602080910402602001604051908101604052809291908181526020018280546113db90612590565b80156114285780601f106113fd57610100808354040283529160200191611428565b820191906000526020600020905b81548152906001019060200180831161140b57829003601f168201915b50505050508152602001600282015481526020016003820160009054906101000a900473ffffffffffffffffffffffffffffffffffffffff1673ffffffffffffffffffffffffffffffffffffffff1673ffffffffffffffffffffffffffffffffffffffff1681525050905092915050565b6114a2826108ac565b6114ab816118b3565b6114b583836119c0565b50505050565b6000801b6114c8816118b3565b600073ffffffffffffffffffffffffffffffffffffffff168273ffffffffffffffffffffffffffffffffffffffff1603611537576040517f08c379a000000000000000000000000000000000000000000000000000000000815260040161152e9061243a565b60405180910390fd5b6115617f59a1c48e5837ad7a7f3dcedcbe129bf3249ec4fbf651fd4f5e2600ead39fe2f5836108d1565b5050565b7fb6e8315043e45efab752c05610f0db52295c7af588d53653ef66f0cc109dd97661158f816118b3565b6000831180156115a157506001548311155b6115e0576040517f08c379a00000000000000000000000000000000000000000000000000000000081526004016115d7906124a6565b60405180910390fd5b6000825111611624576040517f08c379a000000000000000000000000000000000000000000000000000000000815260040161161b90612abb565b60405180910390fd5b6003600084815260200190815260200160002060405180608001604052808581526020018481526020014281526020013373ffffffffffffffffffffffffffffffffffffffff1681525090806001815401808255809150506001900390600052602060002090600402016000909190919091506000820151816000015560208201518160010190816116b691906127d9565b506040820151816002015560608201518160030160006101000a81548173ffffffffffffffffffffffffffffffffffffffff021916908373ffffffffffffffffffffffffffffffffffffffff16021790555050507fb0359f68b10f5f7b4ebdd9449e403605e2e243ca6d7d8acbd22094ea21c6c1af83833360405161173d93929190612adb565b60405180910390a1505050565b6003602052816000526040600020818154811061176657600080fd5b90600052602060002090600402016000915091505080600001549080600101805461179090612590565b80601f01602080910402602001604051908101604052809291908181526020018280546117bc90612590565b80156118095780601f106117de57610100808354040283529160200191611809565b820191906000526020600020905b8154815290600101906020018083116117ec57829003601f168201915b5050505050908060020154908060030160009054906101000a900473ffffffffffffffffffffffffffffffffffffffff16905084565b6000600154905090565b60007f01ffc9a7000000000000000000000000000000000000000000000000000000007bffffffffffffffffffffffffffffffffffffffffffffffffffffffff1916827bffffffffffffffffffffffffffffffffffffffffffffffffffffffff1916149050919050565b6118c4816118bf6119b8565b611ab2565b50565b60006118d38383610f46565b6119ad57600160008085815260200190815260200160002060000160008473ffffffffffffffffffffffffffffffffffffffff1673ffffffffffffffffffffffffffffffffffffffff16815260200190815260200160002060006101000a81548160ff02191690831515021790555061194a6119b8565b73ffffffffffffffffffffffffffffffffffffffff168273ffffffffffffffffffffffffffffffffffffffff16847f2f8788117e7eff1d82e926ec794901d17c78024a50270940304540a733656f0d60405160405180910390a4600190506119b2565b600090505b92915050565b600033905090565b60006119cc8383610f46565b15611aa757600080600085815260200190815260200160002060000160008473ffffffffffffffffffffffffffffffffffffffff1673ffffffffffffffffffffffffffffffffffffffff16815260200190815260200160002060006101000a81548160ff021916908315150217905550611a446119b8565b73ffffffffffffffffffffffffffffffffffffffff168273ffffffffffffffffffffffffffffffffffffffff16847ff6391f5c32d9c69d2a47ea670b442974b53935d1edc7fd64eb21e047a839171b60405160405180910390a460019050611aac565b600090505b92915050565b611abc8282610f46565b611aff5780826040517fe2517d3f000000000000000000000000000000000000000000000000000000008152600401611af6929190612b19565b60405180910390fd5b5050565b60405180606001604052806000815260200160608152602001600081525090565b6040518060800160405280600081526020016060815260200160608152602001600081525090565b6040518060800160405280600081526020016060815260200160008152602001600073ffffffffffffffffffffffffffffffffffffffff1681525090565b6000604051905090565b600080fd5b600080fd5b60007fffffffff0000000000000000000000000000000000000000000000000000000082169050919050565b611bd381611b9e565b8114611bde57600080fd5b50565b600081359050611bf081611bca565b92915050565b600060208284031215611c0c57611c0b611b94565b5b6000611c1a84828501611be1565b91505092915050565b60008115159050919050565b611c3881611c23565b82525050565b6000602082019050611c536000830184611c2f565b92915050565b600073ffffffffffffffffffffffffffffffffffffffff82169050919050565b6000611c8482611c59565b9050919050565b611c9481611c79565b8114611c9f57600080fd5b50565b600081359050611cb181611c8b565b92915050565b600060208284031215611ccd57611ccc611b94565b5b6000611cdb84828501611ca2565b91505092915050565b6000819050919050565b611cf781611ce4565b8114611d0257600080fd5b50565b600081359050611d1481611cee565b92915050565b60008060408385031215611d3157611d30611b94565b5b6000611d3f85828601611d05565b9250506020611d5085828601611d05565b9150509250929050565b611d6381611ce4565b82525050565b600081519050919050565b600082825260208201905092915050565b60005b83811015611da3578082015181840152602081019050611d88565b60008484015250505050565b6000601f19601f8301169050919050565b6000611dcb82611d69565b611dd58185611d74565b9350611de5818560208601611d85565b611dee81611daf565b840191505092915050565b6000606083016000830151611e116000860182611d5a565b5060208301518482036020860152611e298282611dc0565b9150506040830151611e3e6040860182611d5a565b508091505092915050565b60006020820190508181036000830152611e638184611df9565b905092915050565b6000819050919050565b611e7e81611e6b565b8114611e8957600080fd5b50565b600081359050611e9b81611e75565b92915050565b600060208284031215611eb757611eb6611b94565b5b6000611ec584828501611e8c565b91505092915050565b611ed781611e6b565b82525050565b6000602082019050611ef26000830184611ece565b92915050565b611f0181611ce4565b82525050565b6000602082019050611f1c6000830184611ef8565b92915050565b60008060408385031215611f3957611f38611b94565b5b6000611f4785828601611e8c565b9250506020611f5885828601611ca2565b9150509250929050565b600080fd5b600080fd5b7f4e487b7100000000000000000000000000000000000000000000000000000000600052604160045260246000fd5b611fa482611daf565b810181811067ffffffffffffffff82111715611fc357611fc2611f6c565b5b80604052505050565b6000611fd6611b8a565b9050611fe28282611f9b565b919050565b600067ffffffffffffffff82111561200257612001611f6c565b5b61200b82611daf565b9050602081019050919050565b82818337600083830152505050565b600061203a61203584611fe7565b611fcc565b90508281526020810184848401111561205657612055611f67565b5b612061848285612018565b509392505050565b600082601f83011261207e5761207d611f62565b5b813561208e848260208601612027565b91505092915050565b600080604083850312156120ae576120ad611b94565b5b60006120bc85828601611d05565b925050602083013567ffffffffffffffff8111156120dd576120dc611b99565b5b6120e985828601612069565b9150509250929050565b6000806040838503121561210a57612109611b94565b5b600083013567ffffffffffffffff81111561212857612127611b99565b5b61213485828601612069565b925050602083013567ffffffffffffffff81111561215557612154611b99565b5b61216185828601612069565b9150509250929050565b60006020828403121561218157612180611b94565b5b600061218f84828501611d05565b91505092915050565b60006080830160008301516121b06000860182611d5a565b50602083015184820360208601526121c88282611dc0565b915050604083015184820360408601526121e28282611dc0565b91505060608301516121f76060860182611d5a565b508091505092915050565b6000602082019050818103600083015261221c8184612198565b905092915050565b600082825260208201905092915050565b600061224082611d69565b61224a8185612224565b935061225a818560208601611d85565b61226381611daf565b840191505092915050565b60006080820190506122836000830187611ef8565b81810360208301526122958186612235565b905081810360408301526122a98185612235565b90506122b86060830184611ef8565b95945050505050565b60006060820190506122d66000830186611ef8565b81810360208301526122e88185612235565b90506122f76040830184611ef8565b949350505050565b61230881611c79565b82525050565b60006080830160008301516123266000860182611d5a565b506020830151848203602086015261233e8282611dc0565b91505060408301516123536040860182611d5a565b50606083015161236660608601826122ff565b508091505092915050565b6000602082019050818103600083015261238b818461230e565b905092915050565b61239c81611c79565b82525050565b60006080820190506123b76000830187611ef8565b81810360208301526123c98186612235565b90506123d86040830185611ef8565b6123e56060830184612393565b95945050505050565b7f496e76616c696420616464726573730000000000000000000000000000000000600082015250565b6000612424600f83612224565b915061242f826123ee565b602082019050919050565b6000602082019050818103600083015261245381612417565b9050919050565b7f496e76616c69642065717569706d656e74000000000000000000000000000000600082015250565b6000612490601183612224565b915061249b8261245a565b602082019050919050565b600060208201905081810360008301526124bf81612483565b9050919050565b7f496e76616c696420696e64657800000000000000000000000000000000000000600082015250565b60006124fc600d83612224565b9150612507826124c6565b602082019050919050565b6000602082019050818103600083015261252b816124ef565b9050919050565b7f4e487b7100000000000000000000000000000000000000000000000000000000600052603260045260246000fd5b7f4e487b7100000000000000000000000000000000000000000000000000000000600052602260045260246000fd5b600060028204905060018216806125a857607f821691505b6020821081036125bb576125ba612561565b5b50919050565b7f4f776e6572207265717569726564000000000000000000000000000000000000600082015250565b60006125f7600e83612224565b9150612602826125c1565b602082019050919050565b60006020820190508181036000830152612626816125ea565b9050919050565b60008190508160005260206000209050919050565b60006020601f8301049050919050565b600082821b905092915050565b60006008830261268f7fffffffffffffffffffffffffffffffffffffffffffffffffffffffffffffffff82612652565b6126998683612652565b95508019841693508086168417925050509392505050565b6000819050919050565b60006126d66126d16126cc84611ce4565b6126b1565b611ce4565b9050919050565b6000819050919050565b6126f0836126bb565b6127046126fc826126dd565b84845461265f565b825550505050565b600090565b61271961270c565b6127248184846126e7565b505050565b5b818110156127485761273d600082612711565b60018101905061272a565b5050565b601f82111561278d5761275e8161262d565b61276784612642565b81016020851015612776578190505b61278a61278285612642565b830182612729565b50505b505050565b600082821c905092915050565b60006127b060001984600802612792565b1980831691505092915050565b60006127c9838361279f565b9150826002028217905092915050565b6127e282611d69565b67ffffffffffffffff8111156127fb576127fa611f6c565b5b6128058254612590565b61281082828561274c565b600060209050601f8311600181146128435760008415612831578287015190505b61283b85826127bd565b8655506128a3565b601f1984166128518661262d565b60005b8281101561287957848901518255600182019150602085019450602081019050612854565b868310156128965784890151612892601f89168261279f565b8355505b6001600288020188555050505b505050505050565b60006040820190506128c06000830185611ef8565b81810360208301526128d28184612235565b90509392505050565b7f4e616d6520726571756972656400000000000000000000000000000000000000600082015250565b6000612911600d83612224565b915061291c826128db565b602082019050919050565b6000602082019050818103600083015261294081612904565b9050919050565b7f4e487b7100000000000000000000000000000000000000000000000000000000600052601160045260246000fd5b600061298182611ce4565b91507fffffffffffffffffffffffffffffffffffffffffffffffffffffffffffffffff82036129b3576129b2612947565b5b600182019050919050565b60006060820190506129d36000830186611ef8565b81810360208301526129e58185612235565b905081810360408301526129f98184612235565b9050949350505050565b7f4950465320686173682072657175697265640000000000000000000000000000600082015250565b6000612a39601283612224565b9150612a4482612a03565b602082019050919050565b60006020820190508181036000830152612a6881612a2c565b9050919050565b7f4465736372697074696f6e207265717569726564000000000000000000000000600082015250565b6000612aa5601483612224565b9150612ab082612a6f565b602082019050919050565b60006020820190508181036000830152612ad481612a98565b9050919050565b6000606082019050612af06000830186611ef8565b8181036020830152612b028185612235565b9050612b116040830184612393565b949350505050565b6000604082019050612b2e6000830185612393565b612b3b6020830184611ece565b939250505056fea26469706673582212200bcc1c3137fd30299048dc3e0ae242f389fd2d3e93c623b83940bb68478917dc64736f6c63430008140033",
  "linkReferences": {},
  "deployedLinkReferences": {}
}